:020000040800F2
:100000007006002089010008910100089301000892
:100010009501000897010008990100080000000000
:100020000000000000000000000000009B0100082C
:100030009D010008000000009F010008A1010008C8
:10004000A3010008A3010008A3010008A301000800
:10005000A3010008A3010008A3010008A3010008F0
:10006000A3010008A3010008A3010008A3010008E0
:10007000A3010008A3010008A3010008A3010008D0
:10008000A3010008A3010008A3010008A3010008C0
:10009000A3010008A3010008A3010008A3010008B0
:1000A000A3010008A3010008A3010008A3010008A0
:1000B000B5050008A3010008A3010008A30100087A
:1000C000A3010008A3010008A3010008A301000880
:1000D000A3010008A3010008A3010008A301000870
:1000E000A3010008A3010008A301000800F002F822
:1000F00000F03AF80AA090E8000C82448344AAF188
:100100000107DA4501D100F02FF8AFF2090EBAE885
:100110000F0013F0010F18BFFB1A43F0010318473B
:10012000D8060000F8060000103A24BF78C878C14D
:10013000FAD8520724BF30C830C144BF04680C60ED
:10014000704700000023002400250026103A28BF35
:1001500078C1FBD8520728BF30C148BF0B60704739
:100160001FB51FBD10B510BD00F031F81146FFF7E7
:10017000F7FF00F0D3FA00F04FF803B4FFF7F2FFF7
:1001800003BC00F057F800000948804709480047C1
:10019000FEE7FEE7FEE7FEE7FEE7FEE7FEE7FEE737
:1001A000FEE7FEE704480549054A064B7047000094
:1001B000F9040008ED00000870000020700600201F
:1001C000700200207002002070477047704775462B
:1001D00000F02CF8AE4605006946534620F00700B3
:1001E000854618B020B5FFF7DDFFBDE820404FF091
:1001F00000064FF000074FF000084FF0000B21F011
:100200000701AC46ACE8C009ACE8C009ACE8C009DD
:10021000ACE8C0098D46704710B50446AFF30080C6
:100220002046BDE81040FFF7A8BF00000048704717
:100230001000002001491820ABBEFEE72600020096
:1002400070472DE9F04102460025002600200023DA
:100250000024002791F803C00CF00F0591F803C0AB
:100260000CF0100CBCF1000F03D091F802C04CEA66
:10027000050591F800C0BCF1000F31D014680020D2
:100280002BE04FF0010C0CFA00F3B1F800C00CEABF
:1002900003069E4220D183004FF00F0C0CFA03F7A7
:1002A000BC4305FA03FC4CEA040491F803C0BCF11A
:1002B000280F06D14FF0010C0CFA00FCC2F814C054
:1002C0000AE091F803C0BCF1480F05D14FF0010CD2
:1002D0000CFA00FCC2F810C0401C0828D1D31460EE
:1002E000B1F800C0BCF1FF0F34DD546800202EE0EF
:1002F00000F1080C4FF0010808FA0CF3B1F800C047
:100300000CEA03069E4221D183004FF00F0C0CFA39
:1003100003F7BC4305FA03FC4CEA040491F803C05C
:10032000BCF1280F05D100F1080C08FA0CF8C2F84E
:10033000148091F803C0BCF1480F07D100F1080CFC
:100340004FF0010808FA0CF8C2F81080401C082889
:10035000CED35460BDE8F0814161704701617047C0
:1003600070B5002100230F22C47804B3154C246813
:1003700004F4E064C4F5E064210AC1F10403CA4056
:10038000447804FA03F184781440214309010E4CA7
:100390000678A155047804F01F050124AC400578C7
:1003A0006D11AD0005F1E025C5F8004109E00478C4
:1003B00004F01F050124AC40044D0678761145F881
:1003C000264070BD0CED00E000E400E080E100E0BC
:1003D00029B1064AD2690243044BDA6104E0034AB8
:1003E000D2698243014BDA6170470000001002407D
:1003F00029B1064A92690243044B9A6104E0034A18
:1004000092698243014B9A617047000000100240DC
:1004100010B500F001F810BD0CB50020019000905F
:100420003348006840F480303149086000BF3048EC
:10043000006800F4003000900198401C0190009882
:1004400018B90198B0F5A06FF1D12948006800F4FF
:10045000003010B10120009001E0002000900098D1
:10046000012843D12348006840F01000214908606A
:100470000846006820F0070008600846006840F061
:10048000020008601A4840681949486008464068F8
:1004900048600846406840F480604860084640680C
:1004A00020F47C1048600846406840F4E81048603A
:1004B0000846006840F08070086000BF0C48006883
:1004C00000F000700028F9D00948406820F00300CF
:1004D000074948600846406840F00200486000BF95
:1004E0000348406800F00C000828F9D10CBD00005A
:1004F000001002400020024010B51348006840F090
:1005000001001149086008464068104908400E493A
:100510004860084600680E4908400B4908600846D4
:10052000006820F4802008600846406820F4FE003F
:1005300048604FF41F008860FFF76AFF4FF00060CB
:100540000449086010BD0000001002400000FFF8E0
:10055000FFFFF6FE08ED00E01FB501210846FFF79A
:1005600037FF4FF46160ADF804001320ADF80800C8
:100570000020ADF80A00ADF8060001A94FF0804058
:1005800000F054F801221146900700F045F80121CF
:10059000880700F024F81C208DF8000000208DF85A
:1005A00001008DF8020001208DF803006846FFF776
:1005B000D7FE1FBD10B50121880700F01CF840B11F
:1005C00004480068401C034908600121880700F0C6
:1005D00003F810BD0C000020CA430282704721B10D
:1005E000028842F00102028004E002884FF6FE73A6
:1005F0001A400280704730B50246002000230024D4
:10060000158A05EA0103958905EA010413B10CB1C5
:10061000012000E0002030BD1AB183890B438381A3
:1006200002E083898B4383817047000000220288A7
:100630001D4B98420ED01D4B98420BD0B0F1804F0D
:1006400008D01B4B984205D01A4B984202D01A4B47
:10065000984204D14FF68F731A404B881A43174BB8
:10066000984207D0164B984204D04FF6FF431A40E9
:10067000CB881A4302808B8883850B8803850A4BBD
:1006800098420BD0094B984208D00E4B984205D0A7
:100690000D4B984202D00D4B984201D10B7A038644
:1006A0000123838270470000002C01400034014088
:1006B0000004004000080040000C00400010004012
:1006C0000014004000400140004401400048014047
:1006D00008B501210820FFF78BFE10208DF80300DC
:1006E0004001ADF8000002208DF802006946044880
:1006F000FFF7A7FD4FF400710148FFF72FFE08BD7B
:10070000000C01400021044A116000BF0249096841
:100710008142FBDB704700000C00002010B5FFF7A2
:100720001BFFFFF7D5FF0A21024800F01DF800204B
:1007300010BD00000000002010B54FF40071034808
:10074000FFF70AFE0A20FFF7DDFF10BD000C014095
:1007500010B54FF400710348FFF700FE1420FFF7B7
:10076000D1FF10BD000C014070B505460E460024B7
:1007700004E0285D00F006F8601CC4B2B442F8DB67
:1007800070BD000070B506460024FFF7D5FF0025B8
:1007900015E080202841304038B14FF400711548F1
:1007A000FFF7DCFD601CC4B204E04FF40071114897
:1007B000FFF7D2FD0A20FFF7A5FF681CC5B2082D80
:1007C000E7DB204604EBD0714910A4EB410129B1CD
:1007D0004FF400710748FFF7C1FD04E04FF40071CA
:1007E0000448FFF7B9FD0A20FFF78CFFFFF7B0FFC1
:1007F00070BD0000000C0140180800080000002037
:10080000100000002801000828080008100000203F
:100810006006000044010008000102030405060709
:080820000809000000000000BF
:04000005080000ED02
:00000001FF
